{
  "_format": "hh-sol-artifact-1",
  "contractName": "SPIC",
  "sourceName": "contracts/SPIC.sol",
  "abi": [
    {
      "inputs": [
        {
          "internalType": "address",
          "name": "_mockToken",
          "type": "address"
        },
        {
          "internalType": "address",
          "name": "_nftToken",
          "type": "address"
        },
        {
          "internalType": "address",
          "name": "_relayer",
          "type": "address"
        },
        {
          "internalType": "uint256",
          "name": "_votersIncentive",
          "type": "uint256"
        }
      ],
      "stateMutability": "nonpayable",
      "type": "constructor"
    },
    {
      "anonymous": false,
      "inputs": [
        {
          "indexed": false,
          "internalType": "uint256",
          "name": "_id",
          "type": "uint256"
        },
        {
          "indexed": false,
          "internalType": "uint256",
          "name": "_matchAmount",
          "type": "uint256"
        },
        {
          "indexed": false,
          "internalType": "uint256",
          "name": "_startEpoch",
          "type": "uint256"
        },
        {
          "indexed": false,
          "internalType": "uint256",
          "name": "_endEpoch",
          "type": "uint256"
        }
      ],
      "name": "CircleCreated",
      "type": "event"
    },
    {
      "anonymous": false,
      "inputs": [
        {
          "indexed": false,
          "internalType": "address",
          "name": "_contributor",
          "type": "address"
        },
        {
          "indexed": false,
          "internalType": "uint256",
          "name": "_id",
          "type": "uint256"
        },
        {
          "indexed": false,
          "internalType": "uint256",
          "name": "_amount",
          "type": "uint256"
        }
      ],
      "name": "CompensationReceived",
      "type": "event"
    },
    {
      "anonymous": false,
      "inputs": [
        {
          "indexed": false,
          "internalType": "address",
          "name": "_contributor",
          "type": "address"
        },
        {
          "indexed": false,
          "internalType": "uint256",
          "name": "_id",
          "type": "uint256"
        }
      ],
      "name": "ContributorAdded",
      "type": "event"
    },
    {
      "anonymous": false,
      "inputs": [
        {
          "indexed": false,
          "internalType": "address",
          "name": "user",
          "type": "address"
        },
        {
          "indexed": false,
          "internalType": "uint256",
          "name": "nftId",
          "type": "uint256"
        }
      ],
      "name": "NFTWithdrawn",
      "type": "event"
    },
    {
      "anonymous": false,
      "inputs": [
        {
          "indexed": false,
          "internalType": "uint256",
          "name": "pollId",
          "type": "uint256"
        },
        {
          "indexed": false,
          "internalType": "uint256",
          "name": "votingCommitment",
          "type": "uint256"
        },
        {
          "indexed": false,
          "internalType": "address",
          "name": "pkContributor",
          "type": "address"
        },
        {
          "indexed": false,
          "internalType": "uint8",
          "name": "index",
          "type": "uint8"
        }
      ],
      "name": "VoteCasted",
      "type": "event"
    },
    {
      "anonymous": false,
      "inputs": [
        {
          "indexed": false,
          "internalType": "address",
          "name": "user",
          "type": "address"
        },
        {
          "indexed": false,
          "internalType": "uint256",
          "name": "id",
          "type": "uint256"
        },
        {
          "indexed": false,
          "internalType": "uint256",
          "name": "identityCommitment",
          "type": "uint256"
        },
        {
          "indexed": false,
          "internalType": "uint256",
          "name": "_tokenId",
          "type": "uint256"
        },
        {
          "indexed": false,
          "internalType": "uint8",
          "name": "index",
          "type": "uint8"
        }
      ],
      "name": "VoterAdded",
      "type": "event"
    },
    {
      "inputs": [],
      "name": "MAX_LEAVES",
      "outputs": [
        {
          "internalType": "uint8",
          "name": "",
          "type": "uint8"
        }
      ],
      "stateMutability": "view",
      "type": "function"
    },
    {
      "inputs": [],
      "name": "OWNER",
      "outputs": [
        {
          "internalType": "address",
          "name": "",
          "type": "address"
        }
      ],
      "stateMutability": "view",
      "type": "function"
    },
    {
      "inputs": [],
      "name": "RELAYER",
      "outputs": [
        {
          "internalType": "address",
          "name": "",
          "type": "address"
        }
      ],
      "stateMutability": "view",
      "type": "function"
    },
    {
      "inputs": [],
      "name": "VERIFIER_IDENTITY",
      "outputs": [
        {
          "internalType": "address",
          "name": "",
          "type": "address"
        }
      ],
      "stateMutability": "view",
      "type": "function"
    },
    {
      "inputs": [],
      "name": "VERIFIER_VOTE",
      "outputs": [
        {
          "internalType": "address",
          "name": "",
          "type": "address"
        }
      ],
      "stateMutability": "view",
      "type": "function"
    },
    {
      "inputs": [
        {
          "internalType": "uint256",
          "name": "_id",
          "type": "uint256"
        },
        {
          "internalType": "address[]",
          "name": "_addresses",
          "type": "address[]"
        }
      ],
      "name": "addContributors",
      "outputs": [],
      "stateMutability": "nonpayable",
      "type": "function"
    },
    {
      "inputs": [
        {
          "internalType": "uint256",
          "name": "_id",
          "type": "uint256"
        },
        {
          "internalType": "uint256",
          "name": "identityCommitment",
          "type": "uint256"
        },
        {
          "internalType": "uint256",
          "name": "_tokenId",
          "type": "uint256"
        }
      ],
      "name": "becomeVoter",
      "outputs": [],
      "stateMutability": "nonpayable",
      "type": "function"
    },
    {
      "inputs": [
        {
          "internalType": "address",
          "name": "pk",
          "type": "address"
        },
        {
          "internalType": "uint256",
          "name": "mRootIc",
          "type": "uint256"
        },
        {
          "internalType": "uint256",
          "name": "votingCommitment",
          "type": "uint256"
        },
        {
          "internalType": "uint256",
          "name": "_pollId",
          "type": "uint256"
        },
        {
          "internalType": "uint256[8]",
          "name": "proofIc",
          "type": "uint256[8]"
        }
      ],
      "name": "castVoteExternal",
      "outputs": [],
      "stateMutability": "nonpayable",
      "type": "function"
    },
    {
      "inputs": [
        {
          "internalType": "uint256",
          "name": "",
          "type": "uint256"
        },
        {
          "internalType": "address",
          "name": "",
          "type": "address"
        }
      ],
      "name": "contributors",
      "outputs": [
        {
          "internalType": "uint8",
          "name": "voteCount",
          "type": "uint8"
        },
        {
          "internalType": "bool",
          "name": "status",
          "type": "bool"
        }
      ],
      "stateMutability": "view",
      "type": "function"
    },
    {
      "inputs": [
        {
          "internalType": "uint256",
          "name": "_id",
          "type": "uint256"
        },
        {
          "internalType": "uint256",
          "name": "_matchAmount",
          "type": "uint256"
        },
        {
          "internalType": "uint256",
          "name": "_endEpoch",
          "type": "uint256"
        }
      ],
      "name": "createCircle",
      "outputs": [],
      "stateMutability": "nonpayable",
      "type": "function"
    },
    {
      "inputs": [
        {
          "internalType": "uint256",
          "name": "groupId",
          "type": "uint256"
        }
      ],
      "name": "getDepth",
      "outputs": [
        {
          "internalType": "uint8",
          "name": "",
          "type": "uint8"
        }
      ],
      "stateMutability": "view",
      "type": "function"
    },
    {
      "inputs": [
        {
          "internalType": "uint256",
          "name": "groupId",
          "type": "uint256"
        }
      ],
      "name": "getNumberOfLeaves",
      "outputs": [
        {
          "internalType": "uint256",
          "name": "",
          "type": "uint256"
        }
      ],
      "stateMutability": "view",
      "type": "function"
    },
    {
      "inputs": [
        {
          "internalType": "uint256",
          "name": "groupId",
          "type": "uint256"
        }
      ],
      "name": "getRoot",
      "outputs": [
        {
          "internalType": "uint256",
          "name": "",
          "type": "uint256"
        },
        {
          "internalType": "uint256",
          "name": "",
          "type": "uint256"
        }
      ],
      "stateMutability": "view",
      "type": "function"
    },
    {
      "inputs": [
        {
          "internalType": "uint256",
          "name": "",
          "type": "uint256"
        }
      ],
      "name": "groups",
      "outputs": [
        {
          "internalType": "uint8",
          "name": "depth",
          "type": "uint8"
        },
        {
          "internalType": "uint256",
          "name": "root",
          "type": "uint256"
        },
        {
          "internalType": "uint256",
          "name": "numberOfLeaves",
          "type": "uint256"
        }
      ],
      "stateMutability": "view",
      "type": "function"
    },
    {
      "inputs": [],
      "name": "mockToken",
      "outputs": [
        {
          "internalType": "address",
          "name": "",
          "type": "address"
        }
      ],
      "stateMutability": "view",
      "type": "function"
    },
    {
      "inputs": [
        {
          "internalType": "address",
          "name": "",
          "type": "address"
        }
      ],
      "name": "nftToAddress",
      "outputs": [
        {
          "internalType": "uint256",
          "name": "",
          "type": "uint256"
        }
      ],
      "stateMutability": "view",
      "type": "function"
    },
    {
      "inputs": [],
      "name": "nftToken",
      "outputs": [
        {
          "internalType": "address",
          "name": "",
          "type": "address"
        }
      ],
      "stateMutability": "view",
      "type": "function"
    },
    {
      "inputs": [
        {
          "internalType": "uint256",
          "name": "",
          "type": "uint256"
        }
      ],
      "name": "polls",
      "outputs": [
        {
          "internalType": "uint256",
          "name": "matchAmount",
          "type": "uint256"
        },
        {
          "internalType": "uint256",
          "name": "startEpoch",
          "type": "uint256"
        },
        {
          "internalType": "uint256",
          "name": "endEpoch",
          "type": "uint256"
        },
        {
          "internalType": "address",
          "name": "coordinator",
          "type": "address"
        },
        {
          "internalType": "uint8",
          "name": "activeContributorsCount",
          "type": "uint8"
        }
      ],
      "stateMutability": "view",
      "type": "function"
    },
    {
      "inputs": [
        {
          "internalType": "uint256",
          "name": "pollId",
          "type": "uint256"
        }
      ],
      "name": "receiveCompensation",
      "outputs": [],
      "stateMutability": "nonpayable",
      "type": "function"
    },
    {
      "inputs": [],
      "name": "voterIndex",
      "outputs": [
        {
          "internalType": "uint8",
          "name": "",
          "type": "uint8"
        }
      ],
      "stateMutability": "view",
      "type": "function"
    },
    {
      "inputs": [
        {
          "internalType": "uint256",
          "name": "",
          "type": "uint256"
        }
      ],
      "name": "votersGroup",
      "outputs": [
        {
          "internalType": "uint8",
          "name": "depth",
          "type": "uint8"
        },
        {
          "internalType": "uint256",
          "name": "root",
          "type": "uint256"
        },
        {
          "internalType": "uint256",
          "name": "numberOfLeaves",
          "type": "uint256"
        }
      ],
      "stateMutability": "view",
      "type": "function"
    },
    {
      "inputs": [],
      "name": "votersIncentive",
      "outputs": [
        {
          "internalType": "uint256",
          "name": "",
          "type": "uint256"
        }
      ],
      "stateMutability": "view",
      "type": "function"
    },
    {
      "inputs": [],
      "name": "votesIndex",
      "outputs": [
        {
          "internalType": "uint8",
          "name": "",
          "type": "uint8"
        }
      ],
      "stateMutability": "view",
      "type": "function"
    },
    {
      "inputs": [
        {
          "internalType": "uint256",
          "name": "nftId",
          "type": "uint256"
        },
        {
          "internalType": "uint256",
          "name": "votingCommitment",
          "type": "uint256"
        },
        {
          "internalType": "uint256",
          "name": "mRootVc",
          "type": "uint256"
        },
        {
          "internalType": "uint256",
          "name": "pollId",
          "type": "uint256"
        },
        {
          "internalType": "address",
          "name": "pkContributor",
          "type": "address"
        },
        {
          "internalType": "address",
          "name": "nftAddress",
          "type": "address"
        },
        {
          "internalType": "uint256[8]",
          "name": "proofVc",
          "type": "uint256[8]"
        }
      ],
      "name": "withdrawNFT",
      "outputs": [],
      "stateMutability": "nonpayable",
      "type": "function"
    }
  ],
  "bytecode": "0x6080604052732f60994080ca98a324220199b3ec42726b6e763f600460006101000a81548173ffffffffffffffffffffffffffffffffffffffff021916908373ffffffffffffffffffffffffffffffffffffffff16021790555073242b792154b132c4fb662a50eede8820e453bf3c600560006101000a81548173ffffffffffffffffffffffffffffffffffffffff021916908373ffffffffffffffffffffffffffffffffffffffff1602179055507f2fe54c60d3acabf3343a35b6eba15db4821b340f76e741e2249685ed4899af6c6006556000600c60146101000a81548160ff021916908360ff1602179055506000600c60156101000a81548160ff021916908360ff1602179055503480156200011757600080fd5b5060405162003d2138038062003d2183398181016040528101906200013d91906200023f565b8060088190555083600960006101000a81548173ffffffffffffffffffffffffffffffffffffffff021916908373ffffffffffffffffffffffffffffffffffffffff16021790555082600a60006101000a81548173ffffffffffffffffffffffffffffffffffffffff021916908373ffffffffffffffffffffffffffffffffffffffff16021790555081600b60006101000a81548173ffffffffffffffffffffffffffffffffffffffff021916908373ffffffffffffffffffffffffffffffffffffffff160217905550505050506200031d565b6000815190506200022281620002e9565b92915050565b600081519050620002398162000303565b92915050565b600080600080608085870312156200025657600080fd5b6000620002668782880162000211565b9450506020620002798782880162000211565b93505060406200028c8782880162000211565b92505060606200029f8782880162000228565b91505092959194509250565b6000620002b882620002bf565b9050919050565b600073ffffffffffffffffffffffffffffffffffffffff82169050919050565b6000819050919050565b620002f481620002ab565b81146200030057600080fd5b50565b6200030e81620002df565b81146200031a57600080fd5b50565b6139f4806200032d6000396000f3fe608060405234801561001057600080fd5b50600436106101585760003560e01c80639b24b3b0116100c3578063d06fcba81161007c578063d06fcba8146103e2578063e52336f414610400578063e7c360231461041c578063eed5506d1461044d578063f3094f541461046b578063f98986971461049d57610158565b80639b24b3b0146102f7578063ac2f007414610328578063ac79cf0b1461035c578063b9c78c2b14610378578063cdb0dbab146103a8578063d056d0a1146103c457610158565b806342ebb9921161011557806342ebb9921461020f57806342f6a9611461022d578063465bd650146102495780635bedb7d21461026557806375e618c91461029557806396324bd4146102c557610158565b8063082febf01461015d5780630c992bf01461017b578063117803e31461019757806318962c20146101b55780632483e715146101d357806325e606a3146101f1575b600080fd5b6101656104bb565b60405161017291906132a0565b60405180910390f35b61019560048036038101906101909190612846565b6104c0565b005b61019f6106bd565b6040516101ac9190612daa565b60405180910390f35b6101bd6106e3565b6040516101ca919061317f565b60405180910390f35b6101db6106e9565b6040516101e89190612daa565b60405180910390f35b6101f961070f565b6040516102069190612daa565b60405180910390f35b610217610735565b6040516102249190612daa565b60405180910390f35b610247600480360381019061024291906127ee565b61075b565b005b610263600480360381019061025e9190612846565b61095a565b005b61027f600480360381019061027a9190612696565b610b44565b60405161028c919061317f565b60405180910390f35b6102af60048036038101906102aa9190612789565b610b5c565b6040516102bc91906132a0565b60405180910390f35b6102df60048036038101906102da9190612789565b610b88565b6040516102ee939291906132e4565b60405180910390f35b610311600480360381019061030c9190612789565b610bbf565b60405161031f92919061319a565b60405180910390f35b610342600480360381019061033d9190612789565b610bf8565b604051610353959493929190613208565b60405180910390f35b61037660048036038101906103719190612789565b610c5b565b005b610392600480360381019061038d9190612789565b610ed7565b60405161039f919061317f565b60405180910390f35b6103c260048036038101906103bd9190612895565b610ef6565b005b6103cc6112cd565b6040516103d991906132a0565b60405180910390f35b6103ea6112e0565b6040516103f79190612daa565b60405180910390f35b61041a600480360381019061041591906126e8565b611306565b005b610436600480360381019061043191906127b2565b61159d565b6040516104449291906132bb565b60405180910390f35b6104556115e8565b6040516104629190612daa565b60405180910390f35b61048560048036038101906104809190612789565b61160e565b604051610494939291906132e4565b60405180910390f35b6104a5611645565b6040516104b291906132a0565b60405180910390f35b600881565b6000600e60003373ffffffffffffffffffffffffffffffffffffffff1673ffffffffffffffffffffffffffffffffffffffff1681526020019081526020016000205414610542576040517f08c379a0000000000000000000000000000000000000000000000000000000008152600401610539906130bf565b60405180910390fd5b4260076000858152602001908152602001600020600101541061056457600080fd5b600a60009054906101000a900473ffffffffffffffffffffffffffffffffffffffff1673ffffffffffffffffffffffffffffffffffffffff166323b872dd3330846040518463ffffffff1660e01b81526004016105c393929190612dc5565b600060405180830381600087803b1580156105dd57600080fd5b505af11580156105f1573d6000803e3d6000fd5b505050506105ff8383611658565b80600e60003373ffffffffffffffffffffffffffffffffffffffff1673ffffffffffffffffffffffffffffffffffffffff168152602001908152602001600020819055507f7f3c5821e6daea474d248828b52637fd2e4fbeee6cee2e913cd8ddf69d83c86833848484600c601481819054906101000a900460ff1680929190610687906135be565b91906101000a81548160ff021916908360ff1602179055506040516106b0959493929190612e5c565b60405180910390a1505050565b600c60009054906101000a900473ffffffffffffffffffffffffffffffffffffffff1681565b60085481565b600b60009054906101000a900473ffffffffffffffffffffffffffffffffffffffff1681565b600560009054906101000a900473ffffffffffffffffffffffffffffffffffffffff1681565b600960009054906101000a900473ffffffffffffffffffffffffffffffffffffffff1681565b3373ffffffffffffffffffffffffffffffffffffffff166007600085815260200190815260200160002060030160009054906101000a900473ffffffffffffffffffffffffffffffffffffffff1673ffffffffffffffffffffffffffffffffffffffff16146107c957600080fd5b426007600085815260200190815260200160002060020154116107eb57600080fd5b60005b828290508160ff161015610954576001600d6000868152602001908152602001600020600085858560ff1681811061084f577f4e487b7100000000000000000000000000000000000000000000000000000000600052603260045260246000fd5b90506020020160208101906108649190612696565b73ffffffffffffffffffffffffffffffffffffffff1673ffffffffffffffffffffffffffffffffffffffff16815260200190815260200160002060000160016101000a81548160ff0219169083151502179055507f5fd6d0b7e707fe344bd2a1887f9d0eeea8bfcac6f339ba4200e74f0647f101c083838360ff16818110610915577f4e487b7100000000000000000000000000000000000000000000000000000000600052603260045260246000fd5b905060200201602081019061092a9190612696565b85604051610939929190612dfc565b60405180910390a1808061094c906135be565b9150506107ee565b50505050565b600073ffffffffffffffffffffffffffffffffffffffff166007600085815260200190815260200160002060030160009054906101000a900473ffffffffffffffffffffffffffffffffffffffff1673ffffffffffffffffffffffffffffffffffffffff16146109ff576040517f08c379a00000000000000000000000000000000000000000000000000000000081526004016109f69061309f565b60405180910390fd5b428111610a41576040517f08c379a0000000000000000000000000000000000000000000000000000000008152600401610a38906130ff565b60405180910390fd5b610a50833384428560036117b4565b600960009054906101000a900473ffffffffffffffffffffffffffffffffffffffff1673ffffffffffffffffffffffffffffffffffffffff166323b872dd3330856040518463ffffffff1660e01b8152600401610aaf93929190612dc5565b602060405180830381600087803b158015610ac957600080fd5b505af1158015610add573d6000803e3d6000fd5b505050506040513d601f19601f82011682018060405250810190610b019190612760565b507f0b4f37334abbf5cb4e52b6797a4a69b47a4d02bc499c3dfe13417b52d880616e83834284604051610b37949392919061325b565b60405180910390a1505050565b600e6020528060005260406000206000915090505481565b600080600083815260200190815260200160002060000160009054906101000a900460ff169050919050565b60006020528060005260406000206000915090508060000160009054906101000a900460ff16908060010154908060020154905083565b60008060008084815260200190815260200160002060010154600160008581526020019081526020016000206001015491509150915091565b60076020528060005260406000206000915090508060000154908060010154908060020154908060030160009054906101000a900473ffffffffffffffffffffffffffffffffffffffff16908060030160149054906101000a900460ff16905085565b600d600082815260200190815260200160002060003373ffffffffffffffffffffffffffffffffffffffff1673ffffffffffffffffffffffffffffffffffffffff16815260200190815260200160002060000160019054906101000a900460ff16610cc557600080fd5b42600760008381526020019081526020016000206002015410610ce757600080fd5b60006103e86008546007600085815260200190815260200160002060000154610d10919061349a565b610d1a919061342d565b6007600084815260200190815260200160002060000154610d3b91906134f4565b905060006007600084815260200190815260200160002060030160149054906101000a900460ff1660ff1682610d71919061342d565b90506000600d600085815260200190815260200160002060003373ffffffffffffffffffffffffffffffffffffffff1673ffffffffffffffffffffffffffffffffffffffff16815260200190815260200160002060000160009054906101000a900460ff1660ff1682610de4919061349a565b9050600960009054906101000a900473ffffffffffffffffffffffffffffffffffffffff1673ffffffffffffffffffffffffffffffffffffffff1663a9059cbb33836040518363ffffffff1660e01b8152600401610e43929190612dfc565b602060405180830381600087803b158015610e5d57600080fd5b505af1158015610e71573d6000803e3d6000fd5b505050506040513d601f19601f82011682018060405250810190610e959190612760565b507f543bf4d04ae80f0d0ecbcaca75872238efc69c947897a342ff549f1f8a0a3e1a338583604051610ec993929190612e25565b60405180910390a150505050565b6000806000838152602001908152602001600020600201549050919050565b42600760008681526020019081526020016000206002015410610f4e576040517f08c379a0000000000000000000000000000000000000000000000000000000008152600401610f4590612f5f565b60405180910390fd5b600a60009054906101000a900473ffffffffffffffffffffffffffffffffffffffff1673ffffffffffffffffffffffffffffffffffffffff168273ffffffffffffffffffffffffffffffffffffffff1614610fa857600080fd5b86600e60003373ffffffffffffffffffffffffffffffffffffffff1673ffffffffffffffffffffffffffffffffffffffff1681526020019081526020016000205414611029576040517f08c379a00000000000000000000000000000000000000000000000000000000081526004016110209061303f565b60405180910390fd5b60008273ffffffffffffffffffffffffffffffffffffffff16636352211e896040518263ffffffff1660e01b8152600401611064919061317f565b60206040518083038186803b15801561107c57600080fd5b505afa158015611090573d6000803e3d6000fd5b505050506040513d601f19601f820116820180604052508101906110b491906126bf565b90503073ffffffffffffffffffffffffffffffffffffffff168173ffffffffffffffffffffffffffffffffffffffff16146110ee57600080fd5b6110fb87878787866118c5565b50600033905060006103e86007600089815260200190815260200160002060030160149054906101000a900460ff1660ff16611137919061345e565b61ffff16600854600760008a81526020019081526020016000206000015461115f919061349a565b611169919061342d565b9050600960009054906101000a900473ffffffffffffffffffffffffffffffffffffffff1673ffffffffffffffffffffffffffffffffffffffff1663a9059cbb83836040518363ffffffff1660e01b81526004016111c8929190612dfc565b602060405180830381600087803b1580156111e257600080fd5b505af11580156111f6573d6000803e3d6000fd5b505050506040513d601f19601f8201168201806040525081019061121a9190612760565b508473ffffffffffffffffffffffffffffffffffffffff1663a9059cbb838c6040518363ffffffff1660e01b8152600401611256929190612dfc565b600060405180830381600087803b15801561127057600080fd5b505af1158015611284573d6000803e3d6000fd5b505050507f2aa1b4c95f3b2da9c955947fca584743ea0d457708fadf209c093061e98c4ccb828b6040516112b9929190612dfc565b60405180910390a150505050505050505050565b600c60159054906101000a900460ff1681565b600a60009054906101000a900473ffffffffffffffffffffffffffffffffffffffff1681565b4260076000848152602001908152602001600020600201541161135e576040517f08c379a00000000000000000000000000000000000000000000000000000000081526004016113559061301f565b60405180910390fd5b600d600083815260200190815260200160002060008673ffffffffffffffffffffffffffffffffffffffff1673ffffffffffffffffffffffffffffffffffffffff16815260200190815260200160002060000160019054906101000a900460ff166113fe576040517f08c379a00000000000000000000000000000000000000000000000000000000081526004016113f590612fff565b60405180910390fd5b600b60009054906101000a900473ffffffffffffffffffffffffffffffffffffffff1673ffffffffffffffffffffffffffffffffffffffff163373ffffffffffffffffffffffffffffffffffffffff161461148e576040517f08c379a000000000000000000000000000000000000000000000000000000000815260040161148590612f7f565b60405180910390fd5b600d600083815260200190815260200160002060008673ffffffffffffffffffffffffffffffffffffffff1673ffffffffffffffffffffffffffffffffffffffff168152602001908152602001600020600001600081819054906101000a900460ff16809291906114fe906135be565b91906101000a81548160ff021916908360ff1602179055505061152384848484611c69565b7fd48f0fbed9e6c6fe8ef0c0a0dacbf7865e953f8bda745e0a846a5ff8c9507fb7828487600c601581819054906101000a900460ff1680929190611566906135be565b91906101000a81548160ff021916908360ff16021790555060405161158e94939291906131c3565b60405180910390a15050505050565b600d602052816000526040600020602052806000526040600020600091509150508060000160009054906101000a900460ff16908060000160019054906101000a900460ff16905082565b600460009054906101000a900473ffffffffffffffffffffffffffffffffffffffff1681565b60016020528060005260406000206000915090508060000160009054906101000a900460ff16908060010154908060020154905083565b600c60149054906101000a900460ff1681565b600061166383610b5c565b60ff1614156116a7576040517f08c379a000000000000000000000000000000000000000000000000000000000815260040161169e9061307f565b60405180910390fd5b6002600082815260200190815260200160002060009054906101000a900460ff1615611708576040517f08c379a00000000000000000000000000000000000000000000000000000000081526004016116ff9061305f565b60405180910390fd5b60008083815260200190815260200160002073__$4c0484323457fe1a856f46a4759b553fe4$__63168703fa9091836040518363ffffffff1660e01b815260040161175492919061311f565b60006040518083038186803b15801561176c57600080fd5b505af4158015611780573d6000803e3d6000fd5b5050505060016002600083815260200190815260200160002060006101000a81548160ff0219169083151502179055505050565b6117c18682600654611d8d565b6117c9612592565b85816060019073ffffffffffffffffffffffffffffffffffffffff16908173ffffffffffffffffffffffffffffffffffffffff1681525050848160000181815250508381602001818152505082816040018181525050806007600089815260200190815260200160002060008201518160000155602082015181600101556040820151816002015560608201518160030160006101000a81548173ffffffffffffffffffffffffffffffffffffffff021916908373ffffffffffffffffffffffffffffffffffffffff16021790555060808201518160030160146101000a81548160ff021916908360ff16021790555090505050505050505050565b60006003600087815260200190815260200160002060009054906101000a900460ff16611927576040517f08c379a000000000000000000000000000000000000000000000000000000000815260040161191e90612fdf565b60405180910390fd5b600560009054906101000a900473ffffffffffffffffffffffffffffffffffffffff1673ffffffffffffffffffffffffffffffffffffffff166311479fea6040518060400160405280856000600881106119aa577f4e487b7100000000000000000000000000000000000000000000000000000000600052603260045260246000fd5b60200201358152602001856001600881106119ee577f4e487b7100000000000000000000000000000000000000000000000000000000600052603260045260246000fd5b60200201358152506040518060400160405280604051806040016040528088600260088110611a46577f4e487b7100000000000000000000000000000000000000000000000000000000600052603260045260246000fd5b6020020135815260200188600360088110611a8a577f4e487b7100000000000000000000000000000000000000000000000000000000600052603260045260246000fd5b60200201358152508152602001604051806040016040528088600460088110611adc577f4e487b7100000000000000000000000000000000000000000000000000000000600052603260045260246000fd5b6020020135815260200188600560088110611b20577f4e487b7100000000000000000000000000000000000000000000000000000000600052603260045260246000fd5b6020020135815250815250604051806040016040528087600660088110611b70577f4e487b7100000000000000000000000000000000000000000000000000000000600052603260045260246000fd5b6020020135815260200187600760088110611bb4577f4e487b7100000000000000000000000000000000000000000000000000000000600052603260045260246000fd5b602002013581525060405180606001604052808a81526020018973ffffffffffffffffffffffffffffffffffffffff1681526020018b8152506040518563ffffffff1660e01b8152600401611c0c9493929190612ef6565b602060405180830381600087803b158015611c2657600080fd5b505af1158015611c3a573d6000803e3d6000fd5b505050506040513d601f19601f82011682018060405250810190611c5e9190612760565b905095945050505050565b611ca76040518060400160405280601481526020017f4245464f524520434153542041444420564f5445000000000000000000000000815250611f3f565b611cb18284611fd8565b611cef6040518060400160405280601381526020017f414654455220434153542041444420564f544500000000000000000000000000815250611f3f565b611cf98482612173565b5060016007600084815260200190815260200160002060030160149054906101000a900460ff16611d2a91906133f6565b6007600084815260200190815260200160002060030160146101000a81548160ff021916908360ff160217905550611d876007600084815260200190815260200160002060030160149054906101000a900460ff1660ff166124d0565b50505050565b7f30644e72e131a029b85045b68181585d2833e84879b9709143e1f593f00000018310611def576040517f08c379a0000000000000000000000000000000000000000000000000000000008152600401611de6906130df565b60405180910390fd5b6000611dfa84610b5c565b60ff1614611e3d576040517f08c379a0000000000000000000000000000000000000000000000000000000008152600401611e3490612f9f565b60405180910390fd5b60008084815260200190815260200160002073__$4c0484323457fe1a856f46a4759b553fe4$__63b4bdd117909184846040518463ffffffff1660e01b8152600401611e8b93929190613148565b60006040518083038186803b158015611ea357600080fd5b505af4158015611eb7573d6000803e3d6000fd5b505050506001600084815260200190815260200160002073__$4c0484323457fe1a856f46a4759b553fe4$__63b4bdd117909184846040518463ffffffff1660e01b8152600401611f0a93929190613148565b60006040518083038186803b158015611f2257600080fd5b505af4158015611f36573d6000803e3d6000fd5b50505050505050565b611fd581604051602401611f539190612f3d565b6040516020818303038152906040527f41304fac000000000000000000000000000000000000000000000000000000007bffffffffffffffffffffffffffffffffffffffffffffffffffffffff19166020820180517bffffffffffffffffffffffffffffffffffffffffffffffffffffffff8381831617835250505050612569565b50565b6000611fe383610b5c565b60ff161415612027576040517f08c379a000000000000000000000000000000000000000000000000000000000815260040161201e9061307f565b60405180910390fd5b6003600082815260200190815260200160002060009054906101000a900460ff1615612088576040517f08c379a000000000000000000000000000000000000000000000000000000000815260040161207f90612fbf565b60405180910390fd5b6120c66040518060400160405280600581526020017f564f544552000000000000000000000000000000000000000000000000000000815250611f3f565b6001600083815260200190815260200160002073__$4c0484323457fe1a856f46a4759b553fe4$__63168703fa9091836040518363ffffffff1660e01b815260040161211392919061311f565b60006040518083038186803b15801561212b57600080fd5b505af415801561213f573d6000803e3d6000fd5b5050505060016003600083815260200190815260200160002060006101000a81548160ff0219169083151502179055505050565b60006121b36040518060400160405280600e81526020017f48454c4c4f205645524946494552000000000000000000000000000000000000815250611f3f565b600460009054906101000a900473ffffffffffffffffffffffffffffffffffffffff1673ffffffffffffffffffffffffffffffffffffffff166343753b4d604051806040016040528085600060088110612236577f4e487b7100000000000000000000000000000000000000000000000000000000600052603260045260246000fd5b602002013581526020018560016008811061227a577f4e487b7100000000000000000000000000000000000000000000000000000000600052603260045260246000fd5b602002013581525060405180604001604052806040518060400160405280886002600881106122d2577f4e487b7100000000000000000000000000000000000000000000000000000000600052603260045260246000fd5b6020020135815260200188600360088110612316577f4e487b7100000000000000000000000000000000000000000000000000000000600052603260045260246000fd5b60200201358152508152602001604051806040016040528088600460088110612368577f4e487b7100000000000000000000000000000000000000000000000000000000600052603260045260246000fd5b60200201358152602001886005600881106123ac577f4e487b7100000000000000000000000000000000000000000000000000000000600052603260045260246000fd5b60200201358152508152506040518060400160405280876006600881106123fc577f4e487b7100000000000000000000000000000000000000000000000000000000600052603260045260246000fd5b6020020135815260200187600760088110612440577f4e487b7100000000000000000000000000000000000000000000000000000000600052603260045260246000fd5b60200201358152506040518060200160405280898152506040518563ffffffff1660e01b81526004016124769493929190612eaf565b602060405180830381600087803b15801561249057600080fd5b505af11580156124a4573d6000803e3d6000fd5b505050506040513d601f19601f820116820180604052508101906124c89190612760565b905092915050565b612566816040516024016124e4919061317f565b6040516020818303038152906040527ff5b1bba9000000000000000000000000000000000000000000000000000000007bffffffffffffffffffffffffffffffffffffffffffffffffffffffff19166020820180517bffffffffffffffffffffffffffffffffffffffffffffffffffffffff8381831617835250505050612569565b50565b60008151905060006a636f6e736f6c652e6c6f679050602083016000808483855afa5050505050565b6040518060a00160405280600081526020016000815260200160008152602001600073ffffffffffffffffffffffffffffffffffffffff168152602001600060ff1681525090565b6000813590506125e981613979565b92915050565b6000815190506125fe81613979565b92915050565b60008083601f84011261261657600080fd5b8235905067ffffffffffffffff81111561262f57600080fd5b60208301915083602082028301111561264757600080fd5b9250929050565b60008190508260206008028201111561266657600080fd5b92915050565b60008151905061267b81613990565b92915050565b600081359050612690816139a7565b92915050565b6000602082840312156126a857600080fd5b60006126b6848285016125da565b91505092915050565b6000602082840312156126d157600080fd5b60006126df848285016125ef565b91505092915050565b6000806000806000610180868803121561270157600080fd5b600061270f888289016125da565b955050602061272088828901612681565b945050604061273188828901612681565b935050606061274288828901612681565b92505060806127538882890161264e565b9150509295509295909350565b60006020828403121561277257600080fd5b60006127808482850161266c565b91505092915050565b60006020828403121561279b57600080fd5b60006127a984828501612681565b91505092915050565b600080604083850312156127c557600080fd5b60006127d385828601612681565b92505060206127e4858286016125da565b9150509250929050565b60008060006040848603121561280357600080fd5b600061281186828701612681565b935050602084013567ffffffffffffffff81111561282e57600080fd5b61283a86828701612604565b92509250509250925092565b60008060006060848603121561285b57600080fd5b600061286986828701612681565b935050602061287a86828701612681565b925050604061288b86828701612681565b9150509250925092565b60008060008060008060006101c0888a0312156128b157600080fd5b60006128bf8a828b01612681565b97505060206128d08a828b01612681565b96505060406128e18a828b01612681565b95505060606128f28a828b01612681565b94505060806129038a828b016125da565b93505060a06129148a828b016125da565b92505060c06129258a828b0161264e565b91505092959891949750929550565b60006129408383612a21565b60408301905092915050565b60006129588383612d5f565b60208301905092915050565b61296d81613528565b82525050565b61297c81613343565b61298681846133ae565b92506129918261331b565b8060005b838110156129c25781516129a98782612934565b96506129b48361337a565b925050600181019050612995565b505050505050565b6129d38161334e565b6129dd81846133b9565b92506129e882613325565b8060005b83811015612a19578151612a00878261294c565b9650612a0b83613387565b9250506001810190506129ec565b505050505050565b612a2a81613359565b612a3481846133c4565b9250612a3f8261332f565b8060005b83811015612a70578151612a57878261294c565b9650612a6283613394565b925050600181019050612a43565b505050505050565b612a8181613359565b612a8b81846133cf565b9250612a968261332f565b8060005b83811015612ac7578151612aae878261294c565b9650612ab983613394565b925050600181019050612a9a565b505050505050565b612ad881613364565b612ae281846133da565b9250612aed82613339565b8060005b83811015612b1e578151612b05878261294c565b9650612b10836133a1565b925050600181019050612af1565b505050505050565b612b2f8161353a565b82525050565b6000612b408261336f565b612b4a81856133e5565b9350612b5a81856020860161358b565b612b6381613646565b840191505092915050565b6000612b7b600f836133e5565b9150612b8682613657565b602082019050919050565b6000612b9e600b836133e5565b9150612ba982613680565b602082019050919050565b6000612bc16025836133e5565b9150612bcc826136a9565b604082019050919050565b6000612be46024836133e5565b9150612bef826136f8565b604082019050919050565b6000612c07602d836133e5565b9150612c1282613747565b604082019050919050565b6000612c2a600f836133e5565b9150612c3582613796565b602082019050919050565b6000612c4d600b836133e5565b9150612c58826137bf565b602082019050919050565b6000612c70600e836133e5565b9150612c7b826137e8565b602082019050919050565b6000612c936028836133e5565b9150612c9e82613811565b604082019050919050565b6000612cb66025836133e5565b9150612cc182613860565b604082019050919050565b6000612cd96020836133e5565b9150612ce4826138af565b602082019050919050565b6000612cfc600f836133e5565b9150612d07826138d8565b602082019050919050565b6000612d1f6036836133e5565b9150612d2a82613901565b604082019050919050565b6000612d426013836133e5565b9150612d4d82613950565b602082019050919050565b8082525050565b612d6881613574565b82525050565b612d7781613574565b82525050565b612d8681613574565b82525050565b612d958161357e565b82525050565b612da48161357e565b82525050565b6000602082019050612dbf6000830184612964565b92915050565b6000606082019050612dda6000830186612964565b612de76020830185612964565b612df46040830184612d6e565b949350505050565b6000604082019050612e116000830185612964565b612e1e6020830184612d6e565b9392505050565b6000606082019050612e3a6000830186612964565b612e476020830185612d6e565b612e546040830184612d6e565b949350505050565b600060a082019050612e716000830188612964565b612e7e6020830187612d6e565b612e8b6040830186612d6e565b612e986060830185612d6e565b612ea56080830184612d8c565b9695505050505050565b600061012082019050612ec56000830187612a78565b612ed26040830186612973565b612edf60c0830185612a78565b612eed6101008301846129ca565b95945050505050565b600061016082019050612f0c6000830187612a78565b612f196040830186612973565b612f2660c0830185612a78565b612f34610100830184612acf565b95945050505050565b60006020820190508181036000830152612f578184612b35565b905092915050565b60006020820190508181036000830152612f7881612b6e565b9050919050565b60006020820190508181036000830152612f9881612b91565b9050919050565b60006020820190508181036000830152612fb881612bb4565b9050919050565b60006020820190508181036000830152612fd881612bd7565b9050919050565b60006020820190508181036000830152612ff881612bfa565b9050919050565b6000602082019050818103600083015261301881612c1d565b9050919050565b6000602082019050818103600083015261303881612c40565b9050919050565b6000602082019050818103600083015261305881612c63565b9050919050565b6000602082019050818103600083015261307881612c86565b9050919050565b6000602082019050818103600083015261309881612ca9565b9050919050565b600060208201905081810360008301526130b881612ccc565b9050919050565b600060208201905081810360008301526130d881612cef565b9050919050565b600060208201905081810360008301526130f881612d12565b9050919050565b6000602082019050818103600083015261311881612d35565b9050919050565b60006040820190506131346000830185612d58565b6131416020830184612d7d565b9392505050565b600060608201905061315d6000830186612d58565b61316a6020830185612d9b565b6131776040830184612d7d565b949350505050565b60006020820190506131946000830184612d6e565b92915050565b60006040820190506131af6000830185612d6e565b6131bc6020830184612d6e565b9392505050565b60006080820190506131d86000830187612d6e565b6131e56020830186612d6e565b6131f26040830185612964565b6131ff6060830184612d8c565b95945050505050565b600060a08201905061321d6000830188612d6e565b61322a6020830187612d6e565b6132376040830186612d6e565b6132446060830185612964565b6132516080830184612d8c565b9695505050505050565b60006080820190506132706000830187612d6e565b61327d6020830186612d6e565b61328a6040830185612d6e565b6132976060830184612d6e565b95945050505050565b60006020820190506132b56000830184612d8c565b92915050565b60006040820190506132d06000830185612d8c565b6132dd6020830184612b26565b9392505050565b60006060820190506132f96000830186612d8c565b6133066020830185612d6e565b6133136040830184612d6e565b949350505050565b6000819050919050565b6000819050919050565b6000819050919050565b6000819050919050565b600060029050919050565b600060019050919050565b600060029050919050565b600060039050919050565b600081519050919050565b6000602082019050919050565b6000602082019050919050565b6000602082019050919050565b6000602082019050919050565b600081905092915050565b600081905092915050565b600081905092915050565b600081905092915050565b600081905092915050565b600082825260208201905092915050565b60006134018261357e565b915061340c8361357e565b92508260ff03821115613422576134216135e8565b5b828201905092915050565b600061343882613574565b915061344383613574565b92508261345357613452613617565b5b828204905092915050565b600061346982613546565b915061347483613546565b92508161ffff048311821515161561348f5761348e6135e8565b5b828202905092915050565b60006134a582613574565b91506134b083613574565b9250817fffffffffffffffffffffffffffffffffffffffffffffffffffffffffffffffff04831182151516156134e9576134e86135e8565b5b828202905092915050565b60006134ff82613574565b915061350a83613574565b92508282101561351d5761351c6135e8565b5b828203905092915050565b600061353382613554565b9050919050565b60008115159050919050565b600061ffff82169050919050565b600073ffffffffffffffffffffffffffffffffffffffff82169050919050565b6000819050919050565b600060ff82169050919050565b60005b838110156135a957808201518184015260208101905061358e565b838111156135b8576000848401525b50505050565b60006135c98261357e565b915060ff8214156135dd576135dc6135e8565b5b600182019050919050565b7f4e487b7100000000000000000000000000000000000000000000000000000000600052601160045260246000fd5b7f4e487b7100000000000000000000000000000000000000000000000000000000600052601260045260246000fd5b6000601f19601f8301169050919050565b7f45504f4348204e4f5420454e4445440000000000000000000000000000000000600082015250565b7f4e4f542052454c41594552000000000000000000000000000000000000000000600082015250565b7f53656d6170686f726547726f7570733a2067726f757020616c7265616479206560008201527f7869737473000000000000000000000000000000000000000000000000000000602082015250565b7f53656d6170686f726547726f7570733a20766f746520616c726561647920657860008201527f6973747300000000000000000000000000000000000000000000000000000000602082015250565b7f566f74696e6720616e64206964656e7469747920636f6d6d69746d656e74206460008201527f6f6573206e6f7420657869737400000000000000000000000000000000000000602082015250565b7f4e4f5420434f4e5452494255544f520000000000000000000000000000000000600082015250565b7f45504f434820454e444544000000000000000000000000000000000000000000600082015250565b7f494e56414c4944204e4654204944000000000000000000000000000000000000600082015250565b7f53656d6170686f726547726f7570733a206964656e7469747920616c7265616460008201527f7920657869737473000000000000000000000000000000000000000000000000602082015250565b7f53656d6170686f726547726f7570733a2067726f757020646f6573206e6f742060008201527f6578697374000000000000000000000000000000000000000000000000000000602082015250565b7f4f7267616e697a6174696f6e2077617320616c72656164792063726561746564600082015250565b7f416c7265616479206120766f7465720000000000000000000000000000000000600082015250565b7f53656d6170686f726547726f7570733a2067726f7570206964206d757374206260008201527f65203c20534e41524b5f5343414c41525f4649454c4400000000000000000000602082015250565b7f496e76616c69642045504f43482076616c756500000000000000000000000000600082015250565b61398281613528565b811461398d57600080fd5b50565b6139998161353a565b81146139a457600080fd5b50565b6139b081613574565b81146139bb57600080fd5b5056fea2646970667358221220615415b067735112e4d2d5edb8e3917f2b241a33a5cab2d7359808849721d25264736f6c63430008040033",
  "linkReferences": {
    "@zk-kit/incremental-merkle-tree.sol/contracts/IncrementalBinaryTree.sol": {
      "IncrementalBinaryTree": [
        {
          "length": 20,
          "start": 6729
        },
        {
          "length": 20,
          "start": 8574
        },
        {
          "length": 20,
          "start": 8701
        },
        {
          "length": 20,
          "start": 9224
        }
      ]
    }
  },
  "deployedLinkReferences": {
    "@zk-kit/incremental-merkle-tree.sol/contracts/IncrementalBinaryTree.sol": {
      "IncrementalBinaryTree": [
        {
          "length": 20,
          "start": 5916
        },
        {
          "length": 20,
          "start": 7761
        },
        {
          "length": 20,
          "start": 7888
        },
        {
          "length": 20,
          "start": 8411
        }
      ]
    }
  }
}