{
  "_format": "hh-sol-artifact-1",
  "contractName": "MockERC721",
  "sourceName": "contracts/base/ERC721Mock.sol",
  "abi": [
    {
      "anonymous": false,
      "inputs": [
        {
          "indexed": true,
          "internalType": "address",
          "name": "owner",
          "type": "address"
        },
        {
          "indexed": true,
          "internalType": "address",
          "name": "approved",
          "type": "address"
        },
        {
          "indexed": true,
          "internalType": "uint256",
          "name": "tokenId",
          "type": "uint256"
        }
      ],
      "name": "Approval",
      "type": "event"
    },
    {
      "anonymous": false,
      "inputs": [
        {
          "indexed": true,
          "internalType": "address",
          "name": "owner",
          "type": "address"
        },
        {
          "indexed": true,
          "internalType": "address",
          "name": "operator",
          "type": "address"
        },
        {
          "indexed": false,
          "internalType": "bool",
          "name": "approved",
          "type": "bool"
        }
      ],
      "name": "ApprovalForAll",
      "type": "event"
    },
    {
      "anonymous": false,
      "inputs": [
        {
          "indexed": true,
          "internalType": "address",
          "name": "from",
          "type": "address"
        },
        {
          "indexed": true,
          "internalType": "address",
          "name": "to",
          "type": "address"
        },
        {
          "indexed": true,
          "internalType": "uint256",
          "name": "tokenId",
          "type": "uint256"
        }
      ],
      "name": "Transfer",
      "type": "event"
    },
    {
      "inputs": [
        {
          "internalType": "address",
          "name": "to",
          "type": "address"
        },
        {
          "internalType": "uint256",
          "name": "tokenId",
          "type": "uint256"
        }
      ],
      "name": "approve",
      "outputs": [],
      "stateMutability": "nonpayable",
      "type": "function"
    },
    {
      "inputs": [
        {
          "internalType": "address",
          "name": "owner",
          "type": "address"
        }
      ],
      "name": "balanceOf",
      "outputs": [
        {
          "internalType": "uint256",
          "name": "",
          "type": "uint256"
        }
      ],
      "stateMutability": "view",
      "type": "function"
    },
    {
      "inputs": [
        {
          "internalType": "uint256",
          "name": "tokenId",
          "type": "uint256"
        }
      ],
      "name": "getApproved",
      "outputs": [
        {
          "internalType": "address",
          "name": "",
          "type": "address"
        }
      ],
      "stateMutability": "view",
      "type": "function"
    },
    {
      "inputs": [
        {
          "internalType": "address",
          "name": "owner",
          "type": "address"
        },
        {
          "internalType": "address",
          "name": "operator",
          "type": "address"
        }
      ],
      "name": "isApprovedForAll",
      "outputs": [
        {
          "internalType": "bool",
          "name": "",
          "type": "bool"
        }
      ],
      "stateMutability": "view",
      "type": "function"
    },
    {
      "inputs": [
        {
          "internalType": "uint256",
          "name": "tokenId",
          "type": "uint256"
        }
      ],
      "name": "mint",
      "outputs": [],
      "stateMutability": "nonpayable",
      "type": "function"
    },
    {
      "inputs": [],
      "name": "name",
      "outputs": [
        {
          "internalType": "string",
          "name": "",
          "type": "string"
        }
      ],
      "stateMutability": "view",
      "type": "function"
    },
    {
      "inputs": [
        {
          "internalType": "uint256",
          "name": "tokenId",
          "type": "uint256"
        }
      ],
      "name": "ownerOf",
      "outputs": [
        {
          "internalType": "address",
          "name": "",
          "type": "address"
        }
      ],
      "stateMutability": "view",
      "type": "function"
    },
    {
      "inputs": [
        {
          "internalType": "address",
          "name": "from",
          "type": "address"
        },
        {
          "internalType": "address",
          "name": "to",
          "type": "address"
        },
        {
          "internalType": "uint256",
          "name": "tokenId",
          "type": "uint256"
        }
      ],
      "name": "safeTransferFrom",
      "outputs": [],
      "stateMutability": "nonpayable",
      "type": "function"
    },
    {
      "inputs": [
        {
          "internalType": "address",
          "name": "from",
          "type": "address"
        },
        {
          "internalType": "address",
          "name": "to",
          "type": "address"
        },
        {
          "internalType": "uint256",
          "name": "tokenId",
          "type": "uint256"
        },
        {
          "internalType": "bytes",
          "name": "_data",
          "type": "bytes"
        }
      ],
      "name": "safeTransferFrom",
      "outputs": [],
      "stateMutability": "nonpayable",
      "type": "function"
    },
    {
      "inputs": [
        {
          "internalType": "address",
          "name": "operator",
          "type": "address"
        },
        {
          "internalType": "bool",
          "name": "approved",
          "type": "bool"
        }
      ],
      "name": "setApprovalForAll",
      "outputs": [],
      "stateMutability": "nonpayable",
      "type": "function"
    },
    {
      "inputs": [
        {
          "internalType": "bytes4",
          "name": "interfaceId",
          "type": "bytes4"
        }
      ],
      "name": "supportsInterface",
      "outputs": [
        {
          "internalType": "bool",
          "name": "",
          "type": "bool"
        }
      ],
      "stateMutability": "view",
      "type": "function"
    },
    {
      "inputs": [],
      "name": "symbol",
      "outputs": [
        {
          "internalType": "string",
          "name": "",
          "type": "string"
        }
      ],
      "stateMutability": "view",
      "type": "function"
    },
    {
      "inputs": [
        {
          "internalType": "uint256",
          "name": "tokenId",
          "type": "uint256"
        }
      ],
      "name": "tokenURI",
      "outputs": [
        {
          "internalType": "string",
          "name": "",
          "type": "string"
        }
      ],
      "stateMutability": "view",
      "type": "function"
    },
    {
      "inputs": [
        {
          "internalType": "address",
          "name": "to",
          "type": "address"
        },
        {
          "internalType": "uint256",
          "name": "tokenId",
          "type": "uint256"
        }
      ],
      "name": "transfer",
      "outputs": [],
      "stateMutability": "nonpayable",
      "type": "function"
    },
    {
      "inputs": [
        {
          "internalType": "address",
          "name": "from",
          "type": "address"
        },
        {
          "internalType": "address",
          "name": "to",
          "type": "address"
        },
        {
          "internalType": "uint256",
          "name": "tokenId",
          "type": "uint256"
        }
      ],
      "name": "transferFrom",
      "outputs": [],
      "stateMutability": "nonpayable",
      "type": "function"
    }
  ],
  "bytecode": "0x60806040523480156200001157600080fd5b506040518060400160405280600481526020017f4d4f434b000000000000000000000000000000000000000000000000000000008152506040518060400160405280600281526020017f4d43000000000000000000000000000000000000000000000000000000000000815250816000908051906020019062000096929190620000b8565b508060019080519060200190620000af929190620000b8565b505050620001cd565b828054620000c69062000168565b90600052602060002090601f016020900481019282620000ea576000855562000136565b82601f106200010557805160ff191683800117855562000136565b8280016001018555821562000136579182015b828111156200013557825182559160200191906001019062000118565b5b50905062000145919062000149565b5090565b5b80821115620001645760008160009055506001016200014a565b5090565b600060028204905060018216806200018157607f821691505b602082108114156200019857620001976200019e565b5b50919050565b7f4e487b7100000000000000000000000000000000000000000000000000000000600052602260045260246000fd5b61276c80620001dd6000396000f3fe608060405234801561001057600080fd5b50600436106100f55760003560e01c806370a0823111610097578063a9059cbb11610066578063a9059cbb14610282578063b88d4fde1461029e578063c87b56dd146102ba578063e985e9c5146102ea576100f5565b806370a08231146101fc57806395d89b411461022c578063a0712d681461024a578063a22cb46514610266576100f5565b8063095ea7b3116100d3578063095ea7b31461017857806323b872dd1461019457806342842e0e146101b05780636352211e146101cc576100f5565b806301ffc9a7146100fa57806306fdde031461012a578063081812fc14610148575b600080fd5b610114600480360381019061010f919061196e565b61031a565b6040516101219190611d2e565b60405180910390f35b6101326103fc565b60405161013f9190611d49565b60405180910390f35b610162600480360381019061015d91906119c0565b61048e565b60405161016f9190611cc7565b60405180910390f35b610192600480360381019061018d9190611932565b610513565b005b6101ae60048036038101906101a9919061182c565b61062b565b005b6101ca60048036038101906101c5919061182c565b61068b565b005b6101e660048036038101906101e191906119c0565b6106ab565b6040516101f39190611cc7565b60405180910390f35b610216600480360381019061021191906117c7565b61075d565b6040516102239190611f2b565b60405180910390f35b610234610815565b6040516102419190611d49565b60405180910390f35b610264600480360381019061025f91906119c0565b6108a7565b005b610280600480360381019061027b91906118f6565b6108b4565b005b61029c60048036038101906102979190611932565b6108ca565b005b6102b860048036038101906102b3919061187b565b6108d9565b005b6102d460048036038101906102cf91906119c0565b61093b565b6040516102e19190611d49565b60405180910390f35b61030460048036038101906102ff91906117f0565b6109e2565b6040516103119190611d2e565b60405180910390f35b60007f80ac58cd000000000000000000000000000000000000000000000000000000007bffffffffffffffffffffffffffffffffffffffffffffffffffffffff1916827bffffffffffffffffffffffffffffffffffffffffffffffffffffffff191614806103e557507f5b5e139f000000000000000000000000000000000000000000000000000000007bffffffffffffffffffffffffffffffffffffffffffffffffffffffff1916827bffffffffffffffffffffffffffffffffffffffffffffffffffffffff1916145b806103f557506103f482610a76565b5b9050919050565b60606000805461040b90612150565b80601f016020809104026020016040519081016040528092919081815260200182805461043790612150565b80156104845780601f1061045957610100808354040283529160200191610484565b820191906000526020600020905b81548152906001019060200180831161046757829003601f168201915b5050505050905090565b600061049982610ae0565b6104d8576040517f08c379a00000000000000000000000000000000000000000000000000000000081526004016104cf90611eab565b60405180910390fd5b6004600083815260200190815260200160002060009054906101000a900473ffffffffffffffffffffffffffffffffffffffff169050919050565b600061051e826106ab565b90508073ffffffffffffffffffffffffffffffffffffffff168373ffffffffffffffffffffffffffffffffffffffff16141561058f576040517f08c379a000000000000000000000000000000000000000000000000000000000815260040161058690611eeb565b60405180910390fd5b8073ffffffffffffffffffffffffffffffffffffffff166105ae610b4c565b73ffffffffffffffffffffffffffffffffffffffff1614806105dd57506105dc816105d7610b4c565b6109e2565b5b61061c576040517f08c379a000000000000000000000000000000000000000000000000000000000815260040161061390611e2b565b60405180910390fd5b6106268383610b54565b505050565b61063c610636610b4c565b82610c0d565b61067b576040517f08c379a000000000000000000000000000000000000000000000000000000000815260040161067290611f0b565b60405180910390fd5b610686838383610ceb565b505050565b6106a6838383604051806020016040528060008152506108d9565b505050565b6000806002600084815260200190815260200160002060009054906101000a900473ffffffffffffffffffffffffffffffffffffffff169050600073ffffffffffffffffffffffffffffffffffffffff168173ffffffffffffffffffffffffffffffffffffffff161415610754576040517f08c379a000000000000000000000000000000000000000000000000000000000815260040161074b90611e6b565b60405180910390fd5b80915050919050565b60008073ffffffffffffffffffffffffffffffffffffffff168273ffffffffffffffffffffffffffffffffffffffff1614156107ce576040517f08c379a00000000000000000000000000000000000000000000000000000000081526004016107c590611e4b565b60405180910390fd5b600360008373ffffffffffffffffffffffffffffffffffffffff1673ffffffffffffffffffffffffffffffffffffffff168152602001908152602001600020549050919050565b60606001805461082490612150565b80601f016020809104026020016040519081016040528092919081815260200182805461085090612150565b801561089d5780601f106108725761010080835404028352916020019161089d565b820191906000526020600020905b81548152906001019060200180831161088057829003601f168201915b5050505050905090565b6108b13382610f52565b50565b6108c66108bf610b4c565b8383610f70565b5050565b6108d5338383610ceb565b5050565b6108ea6108e4610b4c565b83610c0d565b610929576040517f08c379a000000000000000000000000000000000000000000000000000000000815260040161092090611f0b565b60405180910390fd5b610935848484846110dd565b50505050565b606061094682610ae0565b610985576040517f08c379a000000000000000000000000000000000000000000000000000000000815260040161097c90611ecb565b60405180910390fd5b600061098f611139565b905060008151116109af57604051806020016040528060008152506109da565b806109b984611150565b6040516020016109ca929190611ca3565b6040516020818303038152906040525b915050919050565b6000600560008473ffffffffffffffffffffffffffffffffffffffff1673ffffffffffffffffffffffffffffffffffffffff16815260200190815260200160002060008373ffffffffffffffffffffffffffffffffffffffff1673ffffffffffffffffffffffffffffffffffffffff16815260200190815260200160002060009054906101000a900460ff16905092915050565b60007f01ffc9a7000000000000000000000000000000000000000000000000000000007bffffffffffffffffffffffffffffffffffffffffffffffffffffffff1916827bffffffffffffffffffffffffffffffffffffffffffffffffffffffff1916149050919050565b60008073ffffffffffffffffffffffffffffffffffffffff166002600084815260200190815260200160002060009054906101000a900473ffffffffffffffffffffffffffffffffffffffff1673ffffffffffffffffffffffffffffffffffffffff1614159050919050565b600033905090565b816004600083815260200190815260200160002060006101000a81548173ffffffffffffffffffffffffffffffffffffffff021916908373ffffffffffffffffffffffffffffffffffffffff160217905550808273ffffffffffffffffffffffffffffffffffffffff16610bc7836106ab565b73ffffffffffffffffffffffffffffffffffffffff167f8c5be1e5ebec7d5bd14f71427d1e84f3dd0314c0f7b2291e5b200ac8c7c3b92560405160405180910390a45050565b6000610c1882610ae0565b610c57576040517f08c379a0000000000000000000000000000000000000000000000000000000008152600401610c4e90611e0b565b60405180910390fd5b6000610c62836106ab565b90508073ffffffffffffffffffffffffffffffffffffffff168473ffffffffffffffffffffffffffffffffffffffff161480610ca45750610ca381856109e2565b5b80610ce257508373ffffffffffffffffffffffffffffffffffffffff16610cca8461048e565b73ffffffffffffffffffffffffffffffffffffffff16145b91505092915050565b8273ffffffffffffffffffffffffffffffffffffffff16610d0b826106ab565b73ffffffffffffffffffffffffffffffffffffffff1614610d61576040517f08c379a0000000000000000000000000000000000000000000000000000000008152600401610d5890611d8b565b60405180910390fd5b600073ffffffffffffffffffffffffffffffffffffffff168273ffffffffffffffffffffffffffffffffffffffff161415610dd1576040517f08c379a0000000000000000000000000000000000000000000000000000000008152600401610dc890611dcb565b60405180910390fd5b610ddc8383836112fd565b610de7600082610b54565b6001600360008573ffffffffffffffffffffffffffffffffffffffff1673ffffffffffffffffffffffffffffffffffffffff1681526020019081526020016000206000828254610e379190612066565b925050819055506001600360008473ffffffffffffffffffffffffffffffffffffffff1673ffffffffffffffffffffffffffffffffffffffff1681526020019081526020016000206000828254610e8e9190611fdf565b92505081905550816002600083815260200190815260200160002060006101000a81548173ffffffffffffffffffffffffffffffffffffffff021916908373ffffffffffffffffffffffffffffffffffffffff160217905550808273ffffffffffffffffffffffffffffffffffffffff168473ffffffffffffffffffffffffffffffffffffffff167fddf252ad1be2c89b69c2b068fc378daa952ba7f163c4a11628f55a4df523b3ef60405160405180910390a4610f4d838383611302565b505050565b610f6c828260405180602001604052806000815250611307565b5050565b8173ffffffffffffffffffffffffffffffffffffffff168373ffffffffffffffffffffffffffffffffffffffff161415610fdf576040517f08c379a0000000000000000000000000000000000000000000000000000000008152600401610fd690611deb565b60405180910390fd5b80600560008573ffffffffffffffffffffffffffffffffffffffff1673ffffffffffffffffffffffffffffffffffffffff16815260200190815260200160002060008473ffffffffffffffffffffffffffffffffffffffff1673ffffffffffffffffffffffffffffffffffffffff16815260200190815260200160002060006101000a81548160ff0219169083151502179055508173ffffffffffffffffffffffffffffffffffffffff168373ffffffffffffffffffffffffffffffffffffffff167f17307eab39ab6107e8899845ad3d59bd9653f200f220920489ca2b5937696c31836040516110d09190611d2e565b60405180910390a3505050565b6110e8848484610ceb565b6110f484848484611362565b611133576040517f08c379a000000000000000000000000000000000000000000000000000000000815260040161112a90611d6b565b60405180910390fd5b50505050565b606060405180602001604052806000815250905090565b60606000821415611198576040518060400160405280600181526020017f300000000000000000000000000000000000000000000000000000000000000081525090506112f8565b600082905060005b600082146111ca5780806111b3906121b3565b915050600a826111c39190612035565b91506111a0565b60008167ffffffffffffffff81111561120c577f4e487b7100000000000000000000000000000000000000000000000000000000600052604160045260246000fd5b6040519080825280601f01601f19166020018201604052801561123e5781602001600182028036833780820191505090505b5090505b600085146112f1576001826112579190612066565b9150600a8561126691906121fc565b60306112729190611fdf565b60f81b8183815181106112ae577f4e487b7100000000000000000000000000000000000000000000000000000000600052603260045260246000fd5b60200101907effffffffffffffffffffffffffffffffffffffffffffffffffffffffffffff1916908160001a905350600a856112ea9190612035565b9450611242565b8093505050505b919050565b505050565b505050565b61131183836114f9565b61131e6000848484611362565b61135d576040517f08c379a000000000000000000000000000000000000000000000000000000000815260040161135490611d6b565b60405180910390fd5b505050565b60006113838473ffffffffffffffffffffffffffffffffffffffff166116d3565b156114ec578373ffffffffffffffffffffffffffffffffffffffff1663150b7a026113ac610b4c565b8786866040518563ffffffff1660e01b81526004016113ce9493929190611ce2565b602060405180830381600087803b1580156113e857600080fd5b505af192505050801561141957506040513d601f19601f820116820180604052508101906114169190611997565b60015b61149c573d8060008114611449576040519150601f19603f3d011682016040523d82523d6000602084013e61144e565b606091505b50600081511415611494576040517f08c379a000000000000000000000000000000000000000000000000000000000815260040161148b90611d6b565b60405180910390fd5b805181602001fd5b63150b7a0260e01b7bffffffffffffffffffffffffffffffffffffffffffffffffffffffff1916817bffffffffffffffffffffffffffffffffffffffffffffffffffffffff1916149150506114f1565b600190505b949350505050565b600073ffffffffffffffffffffffffffffffffffffffff168273ffffffffffffffffffffffffffffffffffffffff161415611569576040517f08c379a000000000000000000000000000000000000000000000000000000000815260040161156090611e8b565b60405180910390fd5b61157281610ae0565b156115b2576040517f08c379a00000000000000000000000000000000000000000000000000000000081526004016115a990611dab565b60405180910390fd5b6115be600083836112fd565b6001600360008473ffffffffffffffffffffffffffffffffffffffff1673ffffffffffffffffffffffffffffffffffffffff168152602001908152602001600020600082825461160e9190611fdf565b92505081905550816002600083815260200190815260200160002060006101000a81548173ffffffffffffffffffffffffffffffffffffffff021916908373ffffffffffffffffffffffffffffffffffffffff160217905550808273ffffffffffffffffffffffffffffffffffffffff16600073ffffffffffffffffffffffffffffffffffffffff167fddf252ad1be2c89b69c2b068fc378daa952ba7f163c4a11628f55a4df523b3ef60405160405180910390a46116cf60008383611302565b5050565b6000808273ffffffffffffffffffffffffffffffffffffffff163b119050919050565b600061170961170484611f6b565b611f46565b90508281526020810184848401111561172157600080fd5b61172c84828561210e565b509392505050565b600081359050611743816126da565b92915050565b600081359050611758816126f1565b92915050565b60008135905061176d81612708565b92915050565b60008151905061178281612708565b92915050565b600082601f83011261179957600080fd5b81356117a98482602086016116f6565b91505092915050565b6000813590506117c18161271f565b92915050565b6000602082840312156117d957600080fd5b60006117e784828501611734565b91505092915050565b6000806040838503121561180357600080fd5b600061181185828601611734565b925050602061182285828601611734565b9150509250929050565b60008060006060848603121561184157600080fd5b600061184f86828701611734565b935050602061186086828701611734565b9250506040611871868287016117b2565b9150509250925092565b6000806000806080858703121561189157600080fd5b600061189f87828801611734565b94505060206118b087828801611734565b93505060406118c1878288016117b2565b925050606085013567ffffffffffffffff8111156118de57600080fd5b6118ea87828801611788565b91505092959194509250565b6000806040838503121561190957600080fd5b600061191785828601611734565b925050602061192885828601611749565b9150509250929050565b6000806040838503121561194557600080fd5b600061195385828601611734565b9250506020611964858286016117b2565b9150509250929050565b60006020828403121561198057600080fd5b600061198e8482850161175e565b91505092915050565b6000602082840312156119a957600080fd5b60006119b784828501611773565b91505092915050565b6000602082840312156119d257600080fd5b60006119e0848285016117b2565b91505092915050565b6119f28161209a565b82525050565b611a01816120ac565b82525050565b6000611a1282611f9c565b611a1c8185611fb2565b9350611a2c81856020860161211d565b611a35816122e9565b840191505092915050565b6000611a4b82611fa7565b611a558185611fc3565b9350611a6581856020860161211d565b611a6e816122e9565b840191505092915050565b6000611a8482611fa7565b611a8e8185611fd4565b9350611a9e81856020860161211d565b80840191505092915050565b6000611ab7603283611fc3565b9150611ac2826122fa565b604082019050919050565b6000611ada602583611fc3565b9150611ae582612349565b604082019050919050565b6000611afd601c83611fc3565b9150611b0882612398565b602082019050919050565b6000611b20602483611fc3565b9150611b2b826123c1565b604082019050919050565b6000611b43601983611fc3565b9150611b4e82612410565b602082019050919050565b6000611b66602c83611fc3565b9150611b7182612439565b604082019050919050565b6000611b89603883611fc3565b9150611b9482612488565b604082019050919050565b6000611bac602a83611fc3565b9150611bb7826124d7565b604082019050919050565b6000611bcf602983611fc3565b9150611bda82612526565b604082019050919050565b6000611bf2602083611fc3565b9150611bfd82612575565b602082019050919050565b6000611c15602c83611fc3565b9150611c208261259e565b604082019050919050565b6000611c38602f83611fc3565b9150611c43826125ed565b604082019050919050565b6000611c5b602183611fc3565b9150611c668261263c565b604082019050919050565b6000611c7e603183611fc3565b9150611c898261268b565b604082019050919050565b611c9d81612104565b82525050565b6000611caf8285611a79565b9150611cbb8284611a79565b91508190509392505050565b6000602082019050611cdc60008301846119e9565b92915050565b6000608082019050611cf760008301876119e9565b611d0460208301866119e9565b611d116040830185611c94565b8181036060830152611d238184611a07565b905095945050505050565b6000602082019050611d4360008301846119f8565b92915050565b60006020820190508181036000830152611d638184611a40565b905092915050565b60006020820190508181036000830152611d8481611aaa565b9050919050565b60006020820190508181036000830152611da481611acd565b9050919050565b60006020820190508181036000830152611dc481611af0565b9050919050565b60006020820190508181036000830152611de481611b13565b9050919050565b60006020820190508181036000830152611e0481611b36565b9050919050565b60006020820190508181036000830152611e2481611b59565b9050919050565b60006020820190508181036000830152611e4481611b7c565b9050919050565b60006020820190508181036000830152611e6481611b9f565b9050919050565b60006020820190508181036000830152611e8481611bc2565b9050919050565b60006020820190508181036000830152611ea481611be5565b9050919050565b60006020820190508181036000830152611ec481611c08565b9050919050565b60006020820190508181036000830152611ee481611c2b565b9050919050565b60006020820190508181036000830152611f0481611c4e565b9050919050565b60006020820190508181036000830152611f2481611c71565b9050919050565b6000602082019050611f406000830184611c94565b92915050565b6000611f50611f61565b9050611f5c8282612182565b919050565b6000604051905090565b600067ffffffffffffffff821115611f8657611f856122ba565b5b611f8f826122e9565b9050602081019050919050565b600081519050919050565b600081519050919050565b600082825260208201905092915050565b600082825260208201905092915050565b600081905092915050565b6000611fea82612104565b9150611ff583612104565b9250827fffffffffffffffffffffffffffffffffffffffffffffffffffffffffffffffff0382111561202a5761202961222d565b5b828201905092915050565b600061204082612104565b915061204b83612104565b92508261205b5761205a61225c565b5b828204905092915050565b600061207182612104565b915061207c83612104565b92508282101561208f5761208e61222d565b5b828203905092915050565b60006120a5826120e4565b9050919050565b60008115159050919050565b60007fffffffff0000000000000000000000000000000000000000000000000000000082169050919050565b600073ffffffffffffffffffffffffffffffffffffffff82169050919050565b6000819050919050565b82818337600083830152505050565b60005b8381101561213b578082015181840152602081019050612120565b8381111561214a576000848401525b50505050565b6000600282049050600182168061216857607f821691505b6020821081141561217c5761217b61228b565b5b50919050565b61218b826122e9565b810181811067ffffffffffffffff821117156121aa576121a96122ba565b5b80604052505050565b60006121be82612104565b91507fffffffffffffffffffffffffffffffffffffffffffffffffffffffffffffffff8214156121f1576121f061222d565b5b600182019050919050565b600061220782612104565b915061221283612104565b9250826122225761222161225c565b5b828206905092915050565b7f4e487b7100000000000000000000000000000000000000000000000000000000600052601160045260246000fd5b7f4e487b7100000000000000000000000000000000000000000000000000000000600052601260045260246000fd5b7f4e487b7100000000000000000000000000000000000000000000000000000000600052602260045260246000fd5b7f4e487b7100000000000000000000000000000000000000000000000000000000600052604160045260246000fd5b6000601f19601f8301169050919050565b7f4552433732313a207472616e7366657220746f206e6f6e20455243373231526560008201527f63656976657220696d706c656d656e7465720000000000000000000000000000602082015250565b7f4552433732313a207472616e736665722066726f6d20696e636f72726563742060008201527f6f776e6572000000000000000000000000000000000000000000000000000000602082015250565b7f4552433732313a20746f6b656e20616c7265616479206d696e74656400000000600082015250565b7f4552433732313a207472616e7366657220746f20746865207a65726f2061646460008201527f7265737300000000000000000000000000000000000000000000000000000000602082015250565b7f4552433732313a20617070726f766520746f2063616c6c657200000000000000600082015250565b7f4552433732313a206f70657261746f7220717565727920666f72206e6f6e657860008201527f697374656e7420746f6b656e0000000000000000000000000000000000000000602082015250565b7f4552433732313a20617070726f76652063616c6c6572206973206e6f74206f7760008201527f6e6572206e6f7220617070726f76656420666f7220616c6c0000000000000000602082015250565b7f4552433732313a2062616c616e636520717565727920666f7220746865207a6560008201527f726f206164647265737300000000000000000000000000000000000000000000602082015250565b7f4552433732313a206f776e657220717565727920666f72206e6f6e657869737460008201527f656e7420746f6b656e0000000000000000000000000000000000000000000000602082015250565b7f4552433732313a206d696e7420746f20746865207a65726f2061646472657373600082015250565b7f4552433732313a20617070726f76656420717565727920666f72206e6f6e657860008201527f697374656e7420746f6b656e0000000000000000000000000000000000000000602082015250565b7f4552433732314d657461646174613a2055524920717565727920666f72206e6f60008201527f6e6578697374656e7420746f6b656e0000000000000000000000000000000000602082015250565b7f4552433732313a20617070726f76616c20746f2063757272656e74206f776e6560008201527f7200000000000000000000000000000000000000000000000000000000000000602082015250565b7f4552433732313a207472616e736665722063616c6c6572206973206e6f74206f60008201527f776e6572206e6f7220617070726f766564000000000000000000000000000000602082015250565b6126e38161209a565b81146126ee57600080fd5b50565b6126fa816120ac565b811461270557600080fd5b50565b612711816120b8565b811461271c57600080fd5b50565b61272881612104565b811461273357600080fd5b5056fea2646970667358221220834a436cd687ba1011bd4eaebf1bca74e3d19a186ed85e82b534b60cf23777d164736f6c63430008040033",
  "linkReferences": {},
  "deployedLinkReferences": {}
}